:020000040800F2
:100000006005002045010008EB100008030D000802
:10001000E9100008910B0008511B000800000000C7
:100020000000000000000000000000003117000880
:10003000930B00080000000045140008F5170008A5
:100040005F0100085F0100085F0100085F01000810
:100050005F0100085F0100085F0100085F01000800
:100060005F0100085F0100085F0100085F010008F0
:100070005F0100085F0100085F0100085F010008E0
:100080005F0100085F0100085F0100085F010008D0
:100090005F0100085F0100085F0100085F010008C0
:1000A0005F0100085F0100085F0100085F010008B0
:1000B000491800085F0100085F0100085F0100089F
:1000C0005F0100085F0100085F0100085F01000890
:1000D0005F010008B11900085F0100085F01000816
:1000E0005F0100085F0100085F0100085F01000870
:1000F0005F0100085F0100085F0100085F01000860
:100100005F0100085F0100085F0100085F0100084F
:100110005F0100085F0100085F0100085F0100083F
:100120005F0100085F0100085F0100085F0100082F
:10013000DFF80CD000F0F4FB00480047252600084B
:10014000600500200648804706480047FEE7FEE7B6
:10015000FEE7FEE7FEE7FEE7FEE7FEE7FEE7FEE777
:10016000F917000831010008F0B480EA0102D40F49
:100170004200B2EB410F02D20246084611464A0045
:1001800042D0C30DDDB2C1F3C752AD1A202D35DA0E
:10019000C1F3160141F4000204B15242C5F1200638
:1001A00002FA06F12A411044B3EBD05F23D0C4B168
:1001B000012DA0EBC35009DCF0BC4FF0004202EA75
:1001C000C352DBB200F5000000F0EFBA400000F1CE
:1001D000807000EBC350A0F1807040EAD1704900FC
:1001E00009E0490841EAC071A0EBC35000F50000E6
:1001F000400800EBC350F0BC00F0CEBA61420122CF
:1002000002EB4101001BF6E7F0BC704781F00041B2
:10021000AAE780F00040A7E780EA010210B502F0EB
:100220000043400022D04A001FD0010E01EB1261B2
:10023000C0F35600C2F3560240F4000042F400023C
:10024000A0FB022000047F39140400D0401C50EAB7
:10025000124001D44000491EC2B20C0604EBD0107B
:10026000401C4008802A02D003E0002010BD20F08E
:100270000100002900DA0020184310BD30B480EAE4
:10028000010202F0004530F0004221F0004013D09E
:1002900090B1C30DD40DC2F31601C0F31600E41AD9
:1002A00041F4000140F400027D34914201D3641C0A
:1002B00000E04900002C02DA30BC002070474FF407
:1002C00000000023914201D3891A034340084FEAFA
:1002D0004101F7D151B1914202D14FF0004105E007
:1002E00002D24FF0010101E06FF0010103EBC450B5
:1002F000284430BC00F050BA2DE9FE4F804681EA18
:100300000300C00F0C46009021F0004123F000458F
:10031000B8EB0200A94105D24046214690461C4652
:100320000B46024623F00040104347D0270DC7F389
:100330000A00C3F30A510290401A019040286BDA78
:10034000C3F3130040F4801B0098924620B10023B1
:10035000D2EB030A63EB0B0B01985946C0F1400244
:10036000504600F0F8F906460D4650465946019AA7
:1003700000F000FA10EB08006141002487EA1152F6
:1003800084EAE7731A4340D0009A62B3019A012AC3
:100390004FEA075215DC001B61EB02014FF00042EF
:1003A00002EA0752CDE90042001C41F580113246B5
:1003B0002B4600F037FA03B0BDE8F08F40462146E7
:1003C000F9E7001B61EB0201001C41F580130018E6
:1003D0005B412018A2F5001747EB030140EAD570F6
:1003E000B6196D4111E06D084FEA360645EAC07551
:1003F0004FEA0752001B61EB0201001C41F580111E
:1004000049084FEA30000019514132462B4603B0EB
:10041000BDE8F04F00F0F7B900980122400000233A
:10042000D0EB020263EBE073009821464FEAE074E0
:10043000B8EB000061EB0401E9E783F000435BE700
:1004400081F0004158E72DE9FE4F81EA030404F0F2
:10045000004421F0004100944FF0000B23F00043D2
:1004600050EA01045ED052EA03045BD0C3F30A549D
:10047000C1F30A552C44A4F2F3340194A0FB0254B6
:10048000C1F3130141F48011C3F3130343F4801348
:1004900001FB024400FB034E840A970A44EA81549C
:1004A00047EA8357A4FB076802958D0A05FB078579
:1004B0004FEA932C04FB0C542705029D4FEA065883
:1004C00047EA1637B5EB08056EEB070C870E920E60
:1004D00047EA811742EA8312A7FB0201B6EB0B0140
:1004E00064EB00042B0D43EA0C335E1844EB1C5004
:1004F000DA465146E7FB0201C5F313044FEA0B331A
:1005000043EA14534FEA0432019C43EA0603A4F180
:100510000C040294009CCDE900B400F083F903B010
:10052000BDE8F08F00200146F9E72DE9F04D81EAA2
:10053000030404F0004B21F0004514464FF0000A7C
:1005400023F0004150EA050220D054EA01021DD0F8
:10055000C5F30A570246C5F31303C1F31300C1F3F1
:100560000A5640F4801543F48013A7EB0608101BCD
:10057000D64608F2FD3873EB050002D308F10108F6
:1005800001E092185B41B8F1000F03DA0020014648
:10059000BDE8F08D00204FF48011064684460EE041
:1005A000171B73EB050705D3121B63EB050306430B
:1005B0004CEA010C49084FEA300092185B4150EABE
:1005C0000107EDD152EA030012D082EA040083EA67
:1005D0000501084305D0101BAB4106D201220023C0
:1005E00006E000224FF0004302E06FF001025310DA
:1005F0001AEB06004CEB085110EB0A0041EB0B0123
:10060000BDE8F04D00F0FFB896230022114600F03F
:10061000CCB80EB540F2334102910021CDE9001172
:100620000A460B4600F0FEF803B000BD20F0004083
:10063000C10DC0F3160040F400007F2901DA00204C
:100640007047962903DCC1F19601C840704796397E
:100650008840704700F0004230F000400AD0C10DE1
:1006600001F56071C0F3160042EA0151C20840076B
:100670001143704700200146704701F0004330B439
:1006800021F0004150EA010206D00A0DA2F5607285
:10069000C1F31301002A02DC30BC00207047440F74
:1006A00044EAC104C100E01830BC00EBC25000F0C5
:1006B00073B80000002801DBC0F10040002901DB15
:1006C000C1F100418142704730B50B460146002020
:1006D0002022012409E021FA02F59D4205D303FA04
:1006E00002F5491B04FA02F52844151EA2F1010285
:1006F000F1DC30BD2DE9F05F0546002092469B46B7
:1007000088460646814640241BE028464146474627
:10071000224600F017F953465A46C01A914110D3A9
:1007200011461846224600F016F82D1A67EB01080C
:100730004F4622460120002100F00DF817EB00097A
:100740004E41201EA4F10104DFDC484631462A4612
:100750004346BDE8F09F202A04DB203A00FA02F16C
:10076000002070479140C2F1200320FA03F319439F
:1007700090407047202A06DBCB17203A41FA02F05E
:1007800043EAE07306E041FA02F3D040C2F12002EE
:1007900091400843194670470029A8BF7047401C84
:1007A000490008BF20F00100704710B4B0FA80FC87
:1007B00000FA0CF050EA010404BF10BC704749B1C4
:1007C000CCF1200421FA04F411FA0CF118BF012134
:1007D00021430843A3EB0C01CB1D4FEA00614FEA14
:1007E000102042BF002010BC704700EBC3501044E3
:1007F0000029A4BF10BC7047401C490008BF20F06E
:10080000010010BC704710B5141E73F1000408DA23
:10081000401C41F1000192185B411A4301D120F0C4
:10082000010010BD2DE9F04D92469B4611B1B1FA81
:1008300081F202E0B0FA80F220329046FFF78BFF9F
:1008400004460F4640EA0A0041EA0B0153465A4665
:10085000084313D0114653EA010019D0C8F14002F1
:10086000504600F06FF805460E465046594642463F
:10087000FFF771FF084305D0012004E02046394608
:10088000BDE8F08D0020054346EAE0762C4337436F
:100890000A986305E40AA0EB08000022FD0A44EA76
:1008A00047540A3002D500200146E9E70105101936
:1008B0006941DDE9084500196941BDE8F04DA2E74D
:1008C000C1F30A52C1F3130140F2FF3341F4801126
:1008D0009A4202DA00200146704740F233439A42BE
:1008E000A2F2334202DC524200F02CB8FFF733BFD1
:1008F00030B5041E71F1000404DB4FF000444042A7
:1009000064EB0101141E73F1000405DB1C464FF07B
:100910000043524263EB0403994208BF904230BD4A
:10092000064C074D06E0E06840F0010394E807003C
:1009300098471034AC42F6D3FFF7FEFB503800085E
:1009400070380008202A04DB203A21FA02F0002146
:10095000704721FA02F3D040C2F1200291400843CF
:10096000194670470029816802D041F0010101E079
:1009700021F00101816070470D4910B5884202D114
:10098000012144150AE00B49884202D101210415D6
:1009900004E0094988420AD10121CC03204600F035
:1009A0008DFD2046BDE81040002100F087BD10BD40
:1009B0000024014000280140003C01400146002085
:1009C0008968490700D501207047C06C80B2704724
:1009D0000246002012680A4200D0012070470146FA
:1009E00000208968090700D50120704710B54268CA
:1009F0000E4B0C791A400B6842EA04221343436001
:100A000082680B4B1A40D1E9024323434C7942EAF6
:100A1000440213438360C26A097C22F47002491EB7
:100A2000C9B242EA0151C16210BD0000FFFEF0FFF1
:100A3000FDF7F1FF70B5072609290AD9C568A1F1AC
:100A40000A0404EB4404A640B543A3401D43C5601B
:100A500007E0056901EB4104A640B543A3401D43EF
:100A600005611F23072A09D2446B521E02EB820242
:100A700093409C4391400C43446370BD0D2A09D2BE
:100A8000046BD21F02EB820293409C4391400C43C3
:100A9000046370BDC46A0D3A02EB820293409C432A
:100AA00091400C43C46270BD816841F008018160CF
:100AB00070470029816802D041F4A00101E021F4CF
:100AC000A00181607047816841F004018160704736
:100AD00030B587B001214FF4017000F0E3FC4FF412
:100AE000004000F0C9FC0220ADF8140000248DF88D
:100AF000174005A9164800F04DF8164D2846FFF797
:100B00003BFF4FF46020CDE9020401208DF8044042
:100B10008DF8100000948DF8054069462846FFF7CF
:100B200065FF01212846FFF71DFF2846FFF7BCFFA0
:100B30002846FFF754FF0028FAD12846FFF7C3FFE5
:100B40002846FFF73BFF0028FAD107B030BD000070
:100B5000000801400024014038B50121082000F0C0
:100B6000A1FC4FF48074ADF8004010208DF8030014
:100B70000320064D8DF802006946284600F00AF869
:100B80002146284600F062F838BD0000000C014004
:100B9000FEE77047F0B5CC78002204F00F03E406BE
:100BA00001D58C7823430C784FF00F0C14F0FF0F15
:100BB0004FF0010E1BD005680E880EFA02F4264095
:100BC000A64210D196000CFA06F725EA070703FAA9
:100BD00006F5CE783D43282E02D0482E02D002E002
:100BE000446100E00461521C082AE5D305600A88CC
:100BF000FF2A1CD94468002202F108060EFA06F505
:100C00000E882E40AE420ED196000CFA06F7BC4379
:100C100003FA06F7CE783C43282E00D14561CE7802
:100C2000482E00D10561521C082AE5D34460F0BD6E
:100C30000246002092680A4200D001207047024616
:100C40000020D2680A4200D00120704741617047FD
:100C5000016170472DE9F0470025DFF83C800F4E19
:100C600007462C464FF48C79474502DA4FF47A75E3
:100C70000EE036F82400FFF7C7FC3946FFF71AFDEF
:100C800003D206EB8400458802E0641C4C45EBDD92
:100C90002846BDE8F087000000001B44EC33000844
:100CA00010B50B4C0146072301222046FFF7C2FE78
:100CB00001212046FFF7FDFE02212046FFF788FEB6
:100CC0000028F9D02046BDE81040FFF77EBE0000A6
:100CD000002401402DE9F04100250E4607462C4630
:100CE00008E03846FFF7DCFF0544052001F0FCFB77
:100CF000641CE4B2B442F4D3B5FBF6F080B2BDE8B4
:100D0000F081FEE770B50F4D4FF400642146284690
:100D1000FFF79EFF661031462846FFF799FF012036
:100D200001F0FCFB21462846FFF790FF012001F06F
:100D3000F5FB31462846FFF789FFBDE870400120EA
:100D400001F0ECBB000C014070B50D4D4FF4006498
:100D500021462846FFF77AFF012001F0DFFB6110F2
:100D60002846FFF775FF012001F0D8FB21462846F1
:100D7000FFF76EFFBDE87040012001F0CFBB00001F
:100D8000000C01402DE9F041284F054600244FF4A6
:100D900000684FF4806631463846FFF757FF012060
:100DA00001F0BCFB28064146384602D5FFF750FF4C
:100DB00001E0FFF74BFF6806050E012001F0AEFBD6
:100DC00031463846FFF744FF012001F0A7FB641CC1
:100DD000E4B2082CDFD331463846FFF737FF012055
:100DE00001F09CFB31463846FFF730FF012001F04F
:100DF00095FB444641463846FFF72AFF012001F0A3
:100E00008DFB31463846FFF723FF012001F086FBBA
:100E100021463846FFF713FF31463846FFF716FFE5
:100E2000BDE8F041012001F079BB0000000C014059
:100E300070B51048016821F070410160016841F00F
:100E4000405101600C4C0025C4F89851022004F573
:100E5000CC7401F063FB6560022001F05FFB0120B0
:100E60002060022001F05AFB2560BDE8704001209F
:100E700001F054BB000C01400080214270B51048C5
:100E8000016821F070410160016841F0405101604A
:100E90000C4C0026C4F89861022004F5CC7401F0D3
:100EA0003DFB01256560022001F038FB2560022032
:100EB00001F034FB2660BDE87040012001F02EBB3C
:100EC000000C0140008021422DE9F041154800242A
:100ED000016821F070410160016841F0004101604A
:100EE000012001F01BFB00250F4E2F464FF001089B
:100EF000C6F89871022001F011FBC6F898816006CF
:100F0000040ED6F81C0108B144F00104012001F0E0
:100F100005FB6D1CEDB2082DEAD3C6F8987120468A
:100F2000BDE8F081000C0140008021422DE9F04134
:100F300005461648016821F070410160016841F0E2
:100F400040510160124E0027C6F898713C464FF0A0
:100F50000108280602D5C6F89C8101E0C6F89C71FC
:100F60006806050E022001F0D9FAC6F89881022021
:100F700001F0D4FAC6F89871022001F0CFFA641C8F
:100F8000E4B2082CE5D3BDE8F0810000000C01407C
:100F90000080214270B50D48016821F07041016068
:100FA000016841F040510160094C0120C4F89C01E6
:100FB000C4F89801042004F5CC7401F0AFFA0025C0
:100FC0006560042001F0AAFA256070BD000C0140A4
:100FD0000080214270B50F48016821F07041016026
:100FE000016841F0405101600B4C0020C4F89801A9
:100FF000C4F89C01042004F5CC7401F08FFA01259B
:101000002560042001F08AFA6560BDE87040042084
:1010100001F084BA000C0140008021422DE9F0412A
:10102000204DC824286820F070402860286840F0CF
:10103000405028601C4E4FF00108C6F89C81404685
:1010400001F06CFA0027C6F89871012001F066FAE9
:10105000286820F070402860286840F00040286030
:1010600005E0641EE4B2012001F058FAB4B1012099
:1010700001F054FAD6F81C010028F2D1012001F049
:101080004DFAC6F89881012001F048FAC6F8987127
:10109000012001F043FA0020BDE8F081C6F8987104
:1010A0000120F9E7000C01400080214238B5012100
:1010B000042000F0F7F96020ADF8000010208DF852
:1010C00003000320074C8DF8020069462046FFF715
:1010D00061FD20212046FFF7B9FD40212046FFF7A2
:1010E000B5FD38BD00080140FEE7704730B50F235D
:1010F000C27801780125F2B1144A126801F1E021A9
:1011000002F4E062C2F5E062120AC2F10404D340C4
:101110004278A24084781C401443220181F80024C4
:10112000007800F01F018D404009800000F1E020B0
:10113000C0F8005130BD01F01F0085404809800013
:1011400000F1E020C0F8805130BD00000CED00E05F
:101150000249084302490860704700000000FA0590
:101160000CED00E070B5002505F1B000C0B2002123
:1011700000F04FF90021084600F04BF90021102043
:1011800000F047F900240121002000F042F9641C1E
:10119000E4B2802CF7D36D1CEDB2082DE4D370BD02
:1011A00038B50121082000F07DF914208DF80300E6
:1011B0004FF44060ADF800000320084C8DF80200A9
:1011C00069462046FFF7E6FCE1142046FFF740FDA4
:1011D00021152046FFF73CFD38BD0000000C014002
:1011E00010B5FFF7DDFFC82001F07EF90021AE2029
:1011F00000F00FF90021084600F00BF90021102043
:1012000000F007F90021402000F003F90021B02090
:1012100000F0FFF80021812000F0FBF80021FF2002
:1012200000F0F7F80021A12000F0F3F80021A6203B
:1012300000F0EFF80021A82000F0EBF800213F209B
:1012400000F0E7F80021C82000F0E3F80021D320E7
:1012500000F0DFF80021084600F0DBF80021D5207F
:1012600000F0D7F80021802000F0D3F80021D92029
:1012700000F0CFF80021F12000F0CBF80021DA20B7
:1012800000F0C7F80021122000F0C3F80021DB2095
:1012900000F0BFF80021402000F0BBF800218D20B5
:1012A00000F0B7F80021142000F0B3F80021AF20BF
:1012B00000F0AFF8FFF756FF0021BDE810400846E8
:1012C00000F008B80346012000E05843491EC9B2A7
:1012D000FBD2704710B50446B031C8B2002100F00F
:1012E00098F804F00F0040F00100002100F091F8A0
:1012F000102040EA1410BDE81040002100F089B829
:101300002DE9F041203A0F468046D5B2802803D916
:1013100000208F1C8046FFB23946FFF7DBFF0F4EDF
:10132000002404EB05100121305C00F072F8641C0D
:10133000E4B2082CF5D37F1CF9B24046FFF7CAFF90
:10134000002404EB051030440121007A00F061F81C
:10135000641CE4B2082CF4D3BDE8F0817C270008BB
:101360002DE9F04115460E4607460024FFF7B2FF6F
:101370000E4800EB85150121285D00F04AF8641C39
:10138000E4B2102CF7D3761CF1B23846FFF7A2FF77
:1013900000242819012190F8200000F03AF8641C7C
:1013A000E4B2102CF5D3BDE8F08100006C2D0008EC
:1013B0002DE9F0478046002708981D4691468A4649
:1013C0003C46460821E0281B401EC1B20A20FFF718
:1013D00079FFB9FBF0F00A21B0FBF1F201FB12003A
:1013E00027B9691E8C4201DA30B101273030C2B210
:1013F00006FB0480C0B203E006FB0480C0B22022DA
:101400005146FFF77DFF641CE4B2AC42DBD3BDE87C
:10141000F08710B5044631B1FFF774FC7820FFF770
:10142000B1FC402005E0FFF76DFC7820FFF7AAFC37
:101430000020FFF7A7FC2046FFF7A4FCBDE8104002
:10144000FFF782BC7047000038B50121082000F08A
:1014500029F82020ADF800000420064C8DF8030088
:1014600069462046FFF796FB20212046FFF7EEFB5A
:1014700038BD0000000C0140034A516821F440418E
:10148000014351607047000000100240044A0029E7
:10149000D16901D0014300E08143D1617047000070
:1014A00000100240044A0029916901D0014300E084
:1014B000814391617047000000100240044A0029F6
:1014C000D16801D0014300E08143D1607047000042
:1014D0000010024030B5204A5168204B11F00C0139
:1014E00003D0042901D0082901D0036012E051681B
:1014F000536801F470114FF0020413F4803F04EBC1
:10150000914102D053689B0301D5154B00E0134B6A
:101510005943016051680F2303EA1111114B5C5CC0
:101520000168E14041605468072505EA14241C5D08
:1015300021FA04F48460546805EAD4241B5DD94080
:10154000C1605268032303EA9232064B1B1F9A5C68
:10155000B1FBF2F1016130BD0010024000127A00CF
:1015600000093D00200000200A48816941F008017F
:1015700081610948016821F07F410160016841F003
:101580004C51016004480C30016841F0C001016019
:101590007047000000100240000C01402DE9FC41A2
:1015A0000746FFF7F7FC7806000EFFF7BFFCFFF7D2
:1015B00035FD2C20FFF7BAFCFFF730FD0620FFF7C2
:1015C000B5FCFFF72BFDFFF705FD322000F08CFF87
:1015D000FFF7E0FC012000EB4700C0B2FFF7A6FCDC
:1015E000FFF71CFD28BBFFF76FFC60F30F04FFF74C
:1015F0001FFCFFF769FC60F31F44FFF719FCFFF7BE
:1016000063FC60F30F06FFF713FCFFF75DFC60F36C
:101610001F46FFF70DFCFFF757FC60F30F05FFF7C0
:1016200007FCFFF751FC60F31F45FFF727FCFFF7AE
:10163000D1FC200C310C40EA042045EA012180B2A3
:101640008EB2FEF7E6FF0022264BFEF7FCFE264C8C
:1016500000222346FEF769FF0022244BFEF7EDFE31
:10166000FFF70BF805463046FEF7D3FF0022204B6C
:10167000FEF7E9FE00222346FEF757FFFEF7FDFFC7
:1016800004462846FEF7D2FF1A4E30802046FEF769
:10169000CDFF7080184885421CD81848854219DC57
:1016A00014F1FF4F16D21648844213DC154805602A
:1016B00084602046FEF7CEFF04460E462846FEF71D
:1016C000C9FF02460F48CDE900460B460EA1103077
:1016D00000F06AFABDE8FC410A490FA0103100F0A1
:1016E00053BA000000E06540E0FFEF400080464054
:1016F00000005940320000200000A0C10000FA4262
:101700000000C8423C01002025362E32662A4320C4
:1017100025362E3266252500E6B8A9E5BAA6202092
:10172000E6B9BFE5BAA6203A2025730A00000000FA
:10173000704700000CB50022264800920192016813
:1017400041F4803101604FF4A063016801F400317D
:1017500001910099491C0091019911B90099994290
:10176000F3D10168890333D5012101911A490A682F
:1017700042F010020A600A6822F003020A600A6856
:1017800042F002020A60416841604168416041687C
:1017900041F480614160416821F47C1141604168FD
:1017A00041F4E8114160016841F080710160016815
:1017B0008901FCD5416821F003014160416841F095
:1017C000020141604168C1F381010229FAD10CBDD7
:1017D00001920CBD00100240002002404FF0E021B9
:1017E0000428086903D020F004000861704740F025
:1017F0000400FAE7704700000F4810B5016841F097
:101800000101016041680D4A1140416001680C4AC4
:1018100011400160016821F480210160416821F4D8
:10182000FE0141604FF41F018160FFF783FF05490E
:101830004FF00060086010BD001002400000FFF88B
:10184000FFFFF6FE08ED00E010B501218C072046F1
:1018500000F00CF8002805D02046BDE8104001211A
:1018600000F001B810BDC943018270470246002054
:10187000138A92890B4202EA010202D0002A00D0A8
:101880000120704730B587B001210420FFF70AFE20
:1018900001218803FFF706FE4FF48060ADF81000C9
:1018A0000420224C8DF8130004A92046FFF772F99A
:1018B0006115ADF8101003218DF8121018218DF864
:1018C000131004A92046FFF765F900244FF4E13016
:1018D0000090ADF808400C20154DADF80440ADF86F
:1018E0000A00ADF80640ADF80C406946284600F005
:1018F000D1F84FF4A060FFF72BFC25208DF81400E1
:1019000001218DF815108DF816408DF8171005A8D7
:10191000FFF7ECFB012240F22551284600F0A2F827
:101920000121284600F06EF807B030BD00080140E4
:101930000038014070B586B001210420FFF7B2FDE8
:1019400001214804FFF7A2FD0825174EADF81050FD
:1019500004248DF8134004A93046FFF71BF9ADF8B5
:10196000104003208DF8120018208DF8130004A9F0
:101970003046FFF70FF94FF4E13000900020ADF84A
:101980000400ADF80800094CADF80600ADF80C00F5
:10199000ADF80A506946204600F07CF80121204647
:1019A00000F030F806B070BD00080140004400406F
:1019B00070B50E4D40F225563146284600F033F8FA
:1019C0000B4C60B13146284600F016F8284600F06E
:1019D000B7F82070074A61785054491C617021782B
:1019E0002846BDE8704000F0AFB800000038014064
:1019F000300000203C0000200A0A01219140C94328
:101A0000018070470029818902D041F4005101E032
:101A100021F40051818170470246002012880A4259
:101A200000D00120704770B501F01F050126002489
:101A3000C1F3421306FA05F2012B0FD0022B0FD08F
:101A4000838A4FEA11210088134206FA01F600EA60
:101A5000060001D000B10124204670BD8389F0E763
:101A6000038AEEE710B5C1F3421301F01F04012110
:101A7000A140012B07D0022B07D01430002A0268A6
:101A800005D00A4304E00C30F8E71030F6E78A434B
:101A9000026010BD30B50446008A85B00D464CF694
:101AA000FF710840E98801432182A0894EF6F311B5
:101AB0000840A9882A8911436A8902431143A181F8
:101AC000A08A4FF6FF410840A9890143A1826846D8
:101AD000FFF700FD1948844201D1039800E0029805
:101AE000A189090400EBC00101EB0010296801D5B0
:101AF000490000E08900B0FBF1F06422B0FBF2F194
:101B000009010B096FF018056B4300EB8300A389F3
:101B10001D044FF0320306D503EBC000B0FBF2F01A
:101B200000F0070005E003EB0010B0FBF2F000F05E
:101B30000F000843208105B030BD0000003801408F
:101B40008088C0F308007047C1F3080181807047A6
:101B5000FEE7000010B5084C0220207007480188FD
:101B600007A000F011F80748018805A000F00CF864
:101B70000120207010BD0000000000203200002075
:101B800025640A00340000200FB4054B10B503A9EA
:101B9000044A029800F0EEF810BC5DF814FB000057
:101BA00051250008380000200FB4084B10B504A9D7
:101BB00002AA039800F0DEF8044602A9002000F013
:101BC00070FC204610BC5DF814FB0000A324000844
:101BD00002E008C8121F08C1002AFAD170477047F6
:101BE000002001E001C1121F002AFBD17047000054
:101BF0002DE9FF5F82B00021DDE90430020DDDF840
:101C000040B0034318D044F61050A2F2FF324243D2
:101C10001514119801281FD0A5EB0B00401C5FEA9A
:101C2000000A4FF000064E4FDFF83891B04650469C
:101C300015D5CAF1000413E0119801244AA3012824
:101C400001D16FEA0B010298119AC0E90031C0E995
:101C5000024206B0BDE8F09FCBF10000DFE704468A
:101C60000021404A491842EB0450CDE9001012E02F
:101C7000E00707D032463B4640464946FEF7E3FBC5
:101C80008046894632463B4610461946FEF7DBFB46
:101C900006460F466410002CEAD1DDE90401DDE9B7
:101CA0000023BAF1000F06DAFEF7CDFB42464B46A1
:101CB000FEF7C9FB05E0FEF738FC42464B46FEF74F
:101CC00034FC04460E460022284BFEF711FE03D8D2
:101CD0004FF0FF30014607E00022254B20463146F9
:101CE000FEF70AFBFEF7ECFD102409E0002C0ADBEE
:101CF0000A220023FEF7FEFC039B30321A55641EB5
:101D000050EA0102F2D1641C039AC4F11103144495
:101D1000119A012A03D0012208430DD10AE0084399
:101D200004D000204FF0110B119072E7A3EB0B05CC
:101D30006D1E0DE05B4504DD4FF0000205F101056D
:101D400004E003DA4FF00002A5F10105002AECD00F
:101D500002981199C0E90231C0E9004579E7000015
:101D6000000014400000F03F300000000000F0438D
:101D70000000E03F2DE9FF4F95B09B46894606469F
:101D800000250FE2252877D100242746F84A0121B3
:101D9000059400E0044316F8013F203B01FA03F0EC
:101DA0001042F7D130782A2811D06FF02F03307805
:101DB000A0F13002092A16D8059A44F0020402EB79
:101DC000820203EB42021044761C0590EFE759F8BB
:101DD000042B0592002A03DA504244F40054059083
:101DE00044F00204761C30782E2816D116F8010F24
:101DF00044F004042A280DD06FF02F023078A0F1AF
:101E00003003092B09D807EB870302EB4303C718FC
:101E1000761CF3E759F8047B761C30786C280FD0D9
:101E200006DC4C2817D068280DD06A2814D104E0AD
:101E3000742810D07A280FD10DE044F400140AE081
:101E400044F4801401E044F440147278824202D1D8
:101E500004F58014761C761C307866280BD013DCD1
:101E6000582877D009DC002875D04528F6D04628B8
:101E7000F4D047281AD19DE118E0632835D06428B2
:101E800079D0652812D195E1702873D008DC6728D5
:101E9000F1D069286FD06E280DD06F2806D1B5E03B
:101EA00073282CD0752875D0782874D05A46179985
:101EB00090476D1C75E1C4F30250022809D0032835
:101EC0000DD0D9F8001004280DD00D6009F10409D7
:101ED00067E1D9F80010EA17C1E90052F6E7D9F82E
:101EE00000100D80F2E70D70F0E719F8041B8DF873
:101EF000001000208DF80100EA46012003E059F8A7
:101F000004AB4FF0FF3061074FF0000102D40DE049
:101F100008F101018846B9420FDA8045F8DB1AF86A
:101F200008100029F4D108E008F101018846814237
:101F3000FADB1AF808100029F6D105985B46A0EBE9
:101F4000080721463846179A00F094FA284400EB17
:101F5000080507E04DE029E10DE01AF8010B5A46AB
:101F600017999047B8F10108F7D25B4621463846E9
:101F7000179A13E142E00A220092C4F302524FF092
:101F8000000A022A08D059F804CB032A4FEAEC7160
:101F90000AD00DE029E02AE009F1070121F007024B
:101FA000F2E802C1914609E00FFA8CFC4FEAEC71AD
:101FB000042A03D14FFA8CFC4FEAEC71002907DAAE
:101FC0000A460021DCF1000C61EB02012D2202E047
:101FD000220504D52B228DF80420012203E0E2071C
:101FE00001D02022F7E7904659E00A2102E01022B2
:101FF0000DE010214FF0000A00910BE010224FF08D
:10200000000A44F004040827009203E008224FF07D
:10201000000A0092C4F30252022A05D059F804CBF8
:102020000021032A08D009E009F1070121F0070285
:10203000F2E802C1914605E01FFA8CFC042A01D1A6
:102040000CF0FF0C4FF00008220728D5702806D0AE
:10205000009B83F0100353EA0A0305D00EE04022F0
:102060008DF80420012208E05CEA010206D030224B
:102070008DF804208DF8050002229046009B83F025
:10208000080353EA0A030AD15CEA010201D162079C
:1020900005D530228DF804204FF001087F1E582806
:1020A00004D034A003900EA802900DE036A0F9E70A
:1020B00053466046009AFEF71DFB84460398825CF7
:1020C0000298401E029002705CEA0100F0D1029872
:1020D00006A9081A00F1200A600702D524F480340A
:1020E00000E00127574502DDA7EB0A0000E00020D1
:1020F00000EB0A01009005984144401A0590E00366
:1021000006D45B462146179A059800F0B3F90544BA
:10211000002706E001A85A46C05D179990476D1C3C
:102120007F1C4745F6DBE0030CD55B462146179A3A
:10213000059800F09FF9054404E030205A461799AD
:1021400090476D1C0099481E00900029F5DC08E0BE
:10215000029802995A460078491C029117999047B3
:102160006D1CBAF10001AAF1010AF1DC65E1000081
:10217000092801003031323334353637383961625D
:102180006364656600000000303132333435363721
:1021900038394142434445460000000000F058F9F8
:1021A0000544761C307800287FF4ECAD19B0284641
:1021B000BDE8F08F620700D4062709F1070222F07C
:1021C000070CFCE80223E14603F000485FEA080C34
:1021D00002D00FF2702C0DE05FEA045C02D50FF222
:1021E000682C07E05FEAC47C02D00FF2602C01E0AB
:1021F000AFF2700C4FF0FF3823F00043CDF850C021
:1022000065280CD006DC452809D046281DD0472873
:102210003DD13DE0662818D067287ED138E0002106
:10222000112F01DB112000E0781CCDE9000106A987
:102230000EA8FFF7DDFCDDE90F010E9A03910021E6
:10224000009207F1010A04914DE04FF00040009721
:10225000CDE9011006A90EA8FFF7CAFCDDE90F02BF
:1022600003920E9B11990022DDF80CA000930492BA
:1022700011B9791C00EB010AB7EB0A0004D4C0F1D4
:10228000FF3007F1010A0490AAEB0700019044E037
:10229000012F00DA01270021112F01DD112000E0BC
:1022A0003846CDE9000106A90EA8FFF7A1FCDDE93B
:1022B0000F010E9A0391002104910092BA46210762
:1022C0000CD40399514500DA8A46BAF1010F05DDB5
:1022D000009AAAF10101515C302908D0B84202DA13
:1022E00010F1040F06DA0121CDE9011015E0AAF181
:1022F0000101E9E7002805DC049901440491AAEBF7
:10230000000102E0411C514500DD8A460499401A53
:10231000401C01904FF000400290200704D4019827
:10232000504501DBCDF8048000208DF84F00029865
:102330000DF14F07B0F1004F25D02B200E900298E1
:102340004FF0020800280CDA404202902D200E9037
:1023500007E00A210298FEF7B7F93031029007F83A
:10236000011DB8F10001A8F10108F2DC0298002873
:10237000EFD1791E0E980870307800F0200040F000
:10238000450007F8020D12A8C01B00F107081498B9
:10239000007800B1012000EB0A01019801EBE07127
:1023A00005984144401A401E0590E00306D45B4660
:1023B0002146179A059800F05DF8054414980078B6
:1023C00018B15A46179990476D1CE00324D55B4617
:1023D0002146179A059800F04DF805441CE0049832
:1023E000002807DBDDE90301884203DD0098405C3B
:1023F000179901E0179930205A469047049805F143
:102400000105401C04900198401E019004D12E202B
:102410005A46179990476D1CBAF10001AAF1010ABA
:10242000DDDC05E017F8010B5A46179990476D1C43
:10243000B8F10001A8F10108F4DC5B462146179AC7
:102440000598ABE62D0000002B00000020000000E6
:102450002DE9F041044600251E461746880404D4A1
:1024600005E039462020B0476D1C641EF9D528468A
:10247000BDE8F0812DE9F041044600251E46904656
:10248000C80301D5302700E02027880404D505E0E3
:1024900041463846B0476D1C641EF9D52846BDE854
:1024A000F0810A68531C0B601070704710B56FF014
:1024B0000400FFF793F9094809490068B0FBF1F0FF
:1024C0000849C0B200EB40020870C2EBC0104FF6E2
:1024D000FF7202EAC000488010BD00000400002026
:1024E00000127A00180000200B49498848434FF039
:1024F000E021486100238B61086940F00100086118
:102500000869C20701D0C003FAD5086920F00100AC
:1025100008618B6170470000180000200B490978A2
:1025200048434FF0E021486100238B61086940F087
:10253000010008610869C20701D0C003FAD5086923
:1025400020F0010008618B61704700001800002036
:1025500070B5104D0446287801280AD10E4EE1B21C
:102560003046FFF7F1FA80213046FFF755FA002890
:10257000F9D0287802280AD1084DE1B22846FFF7A1
:10258000E3FA80212846FFF747FA0028F9D02046D1
:1025900070BD0000000000200038014000440040F1
:1025A000F8B50A210120FEF795FBFEF72DF8FEF79E
:1025B00051F84FF06632154BFDF745FFFEF75DF819
:1025C000134E05463146FDF759FE4FF07E51FDF79B
:1025D00020FE04460F492846FDF71EFE3146FDF752
:1025E0004DFE2146FDF74AFEFEF734FB044610205F
:1025F00000900423224602212420FEF7D9FE214622
:10260000BDE8F84004A0FFF7BFBA000066664A3F85
:102610000000A0400050C347E58589E5BCBA3A20D8
:1026200025640A00FFF742FFFEF79EFFFEF7D8FD84
:10263000FEF74EFAFFF726F9FFF77CF9FEF78CFA62
:10264000FEF734FDFEF700FFFEF78CFD00210822A7
:102650000846FEF785FE092200211020FEF780FEC5
:102660000C2200213E20FEF77BFE092200214E2095
:10267000FEF776FE122202210020FEF771FE1322E1
:1026800002211020FEF76CFE194C4FF47A7500F011
:102690003FF8FFF785FF20212046FEF7C9FA012801
:1026A0001CD014A0FFF770FA142204210020FEF7BA
:1026B00057FE152204211020FEF752FE1822042195
:1026C0002020FEF74DFE192204213020FEF748FE9F
:1026D000FFF740FA2846FFF707FFD8E708A0FFF703
:1026E00053FA162204210020FEF73AFE1722E1E7F2
:1026F000000C01406974206973207261696E0A00E0
:102700006974206973206E6F207261696E0A00001F
:1027100038B54420FEF742FF144D102400940223E4
:102720002A8800212620FEF743FE0094104C022345
:10273000002122886420FEF73BFE21880D4B0122F8
:10274000002032391F2902D3C3F8A02101E0C3F8C9
:10275000A00109492B881E2BC1F8940102D9C1F8A8
:10276000982138BDC1F8980138BD00003200002022
:1027700034000020008021420000214200000000BF
:10278000000000000000000000000000000000F851
:1027900000000000000000333000000000100C06B4
:1027A000100C0600000000000000000040C078404F
:1027B000C0784000043F04043F040400007088FC1B
:1027C00008300000001820FF211E0000F008F00073
:1027D000E018000000211C031E211E0000F00888E4
:1027E000700000001E2123241927211010160E004E
:1027F000000000000000000000000000000000E0F9
:10280000180402000000000718204000000204180D
:10281000E00000000040201807000000404080F069
:10282000804040000202010F01020200000000F09F
:10283000000000000101011F010101000000000073
:102840000000000080B070000000000000000000E8
:102850000000000000010101010101010000000071
:102860000000000000303000000000000000000008
:1028700080601804006018060100000000E01008E5
:102880000810E000000F102020100F00001010F8BA
:10289000000000000020203F2020000000700808F9
:1028A0000888700000302824222130000030088879
:1028B000884830000018202020110E000000C020A1
:1028C00010F8000000070424243F240000F80888C2
:1028D000880808000019212020110E0000E010884F
:1028E00088180000000F112020110E000038080881
:1028F000C83808000000003F000000000070880891
:1029000008887000001C222121221C0000E0100811
:102910000810E0000000312222110F00000000C06A
:10292000C000000000000030300000000000008007
:1029300000000000000080600000000000008040F7
:102940002010080000010204081020004040404010
:102950004040400004040404040404000008102063
:1029600040800000002010080402010000704808A8
:102970000808F0000000003036010000C030C82810
:10298000E810E0000718272423140B000000C038CB
:10299000E0000000203C23020227382008F8888845
:1029A00088700000203F202020110E00C030080851
:1029B00008083800071820202010080008F8080828
:1029C0000810E000203F202020100F0008F8888821
:1029D000E8081000203F20202320180008F88888ED
:1029E000E8081000203F200003000000C030080865
:1029F0000838000007182020221E020008F80800EE
:102A00000008F808203F210101213F20000808F8B4
:102A1000080800000020203F2020000000000808D7
:102A2000F8080800C08080807F00000008F888C097
:102A300028180800203F20012638200008F8080048
:102A400000000000203F20202020300008F8F8007F
:102A5000F8F80800203F003F003F200008F830C091
:102A60000008F808203F200007183F00E010080881
:102A70000810E0000F10202020100F0008F80808B0
:102A80000808F000203F210101010000E0100808C3
:102A90000810E0000F18242438504F0008F88888E8
:102AA00088887000203F2000030C302000708808C8
:102AB000080838000038202121221C00180808F8D6
:102AC000080818000000203F2000000008F8080057
:102AD0000008F808001F202020201F000878880028
:102AE00000C83808000007380E010000F80800F898
:102AF0000008F800033C0700073C03000818688042
:102B00008068180820302C03032C30200838C800B7
:102B1000C83808000000203F200000001008080806
:102B2000C83808002038262120201800000000FEA8
:102B3000020202000000007F40404000000C30C054
:102B400000000000000000010638C0000002020280
:102B5000FE000000004040407F0000000000040232
:102B6000020204000000000000000000000000005D
:102B7000000000008080808080808080000202044D
:102B80000000000000000000000000000000808045
:102B9000808000000019242222223F2008F80080B3
:102BA00080000000003F112020110E000000008076
:102BB00080800000000E1120202011000000008005
:102BC0008088F800000E112020103F200000808037
:102BD00080800000001F222222221300008080F04B
:102BE000888888180020203F202000000000808076
:102BF00080808000006B94949493600008F80080BB
:102C000080800000203F210000203F200080989815
:102C1000000000000020203F202000000000008075
:102C20009898000000C08080807F000008F80000B5
:102C300080808000203F24022D302000000808F80A
:102C4000000000000020203F2020000080808080C5
:102C500080808000203F20003F20003F8080008057
:102C600080800000203F210000203F200000808065
:102C700080800000001F202020201F008080008016
:102C80008000000080FFA12020110E0000000080C5
:102C900080808000000E112020A0FF8080808000B6
:102CA0008080800020203F212000010000008080E3
:102CB000808080000033242424241900008080E0D8
:102CC000808000000000001F2020000080800000A5
:102CD00000808000001F202020103F208080800086
:102CE0000080808000010E30080601008080008096
:102CF000008080800F300C030C300F0000808000BB
:102D0000808080000020312E0E31200080808000E5
:102D10000080808080818E70180601000080808095
:102D2000808080000021302C222130000000000033
:102D3000807C020200000000003F404000000000D4
:102D4000FF00000000000000FF0000000002027C05
:102D5000800000000040403F00000000000601012C
:102D6000020204040000000000000000101010FF28
:102D7000109008888888FF88888808000000000074
:102D80000000000000000000000000000444827FFA
:102D900001808040432C1028468180000000000004
:102DA00000000000000000000000000040445465E6
:102DB000C664544400FC4444C44240000000000087
:102DC00000000000000000000000000020124A8205
:102DD0007F020A92601F0000FF0000000000000058
:102DE0000000000000000000000000000000F88863
:102DF000888888FF88888888F80000000000000024
:102E000000000000000000000000000000001F089B
:102E10000808087F888888889F80F00000000000EC
:102E2000000000000000000000000000808282829C
:102E3000828282E2A2928A86828080000000000064
:102E40000000000000000000000000000000000082
:102E50000040807F00000000000000000000000033
:102E60000000000000000000000000002424A4FE78
:102E7000A3220022CC0000FF0000000000000000A0
:102E8000000000000000000000000000080601FF34
:102E900000010404040404FF020202000000000018
:102EA000000000000000000000000000101010FFF3
:102EB000109008888888FF88888808000000000033
:102EC0000000000000000000000000000444827FB9
:102ED00001808040432C10284681800000000000C3
:102EE00000000000000000000000000000000010D2
:102EF000206000FC0440A0980000000000000000DA
:102F000000000000000000000000000000000001C0
:102F1000414949292525243F010000000000000007
:102F2000000000000000000000000000002020A0C1
:102F3000A0A4A820209816F0101010000000000097
:102F40000000000000000000000000000000001F62
:102F50000A2A7F00000F206F3000000000000000F0
:102F60000000000000000000000000001060028C63
:102F70000000FE9292929292FE000000000000007B
:102F800000000000000000000000000004047E01BA
:102F9000407E42427E427E42427E4000000000006F
:102FA0000000000000000000000000000000FC2401
:102FB0002424FC252624FC242424040000000000F2
:102FC00000000000000000000000000040308F8082
:102FD000844C55252525554C80808000000000003C
:102FE0000000000000000000000000000000008061
:102FF0008000000000000000000000000000000051
:10300000000000000000000000000000000000318F
:10301000310000000000000000000000000000007F
:10302000000000000000000000000000000C120C76
:1030300000C07010080808081030000000000000F0
:103040000000000000000000000000000000000080
:10305000000F183020202020301C0000000000004D
:103060000000000000000000000000001060028C62
:1030700000FE929292929292FE00000000000000E8
:1030800000000000000000000000000004047E01B9
:103090004448507F40407F504844400000000000BA
:1030A00000000000000000000000000000F0F80830
:1030B00088F8F000804020100800000000000000A8
:1030C00000000000000000000000000000000021DF
:1030D000180C0201001E3F21211E1E0000000000EE
:1030E00000000000000000000000000000000000E0
:1030F00000000000000000000000000000000000D0
:1031000000000000000000000000000000000000BF
:1031100000000000000000000000000000000000AF
:10312000000000000000000000000000000000009F
:10313000000000000000000000000000000000008F
:10314000000000000000000000000000000010303F
:10315000301000000000000000000000000000002F
:10316000000000000000000000000000003E22E21D
:10317000223E00FE2222222222E202000000000063
:10318000000000000000000000000000203F201FA1
:103190001111007F444444444447400000000000B3
:1031A000000000000000000000000000040404F41F
:1031B00084D4A5A6A4D484F4040404000000000070
:1031C00000000000000000000000000000FE0202FD
:1031D000123A1613121A3242827E000000000000DA
:1031E00000000000000000000000000040404244D9
:1031F00058C0407F40C0504846404000000000009A
:10320000000000000000000000000000808040205E
:1032100018070000003F40404040780000000000D8
:1032200000000000000000000000000000FE42421C
:1032300042FE0042A29E82A2C2BE00000000000028
:10324000000000000000000000000000806F08087F
:1032500028CF00002FC8080828CF00000000000079
:10326000000000000000000000000000000202C298
:10327000020202FE828282828202000000000000BE
:103280000000000000000000000000004040407FFF
:103290004040407F4040404040404000000000002F
:1032A000000000000000000000000000080888C8BE
:1032B000380C0B0808E8080808080800000000009F
:1032C000000000000000000000000000020100FFFC
:1032D00040414141417F41414141400000000000E7
:1032E000000000000000000000000000106002CCA0
:1032F0008040201E0202023E4040400000000000CC
:1033000000000000000000000000000004047E0136
:103310008080834D5121514987808000000000004A
:10332000000000000000000000000000040404840D
:10333000E43C2724242424E40404040000000000C6
:103340000000000000000000000000000402010076
:10335000FF0909090949897F0000000000000000F9
:103360000000000000000000000000000202020255
:103370000202FE020242820202020200000000007B
:10338000000000000000000000000000000000003D
:103390000000FF0000000001060000000000000027
:1033A00000000000000000000000000002E22222F5
:1033B000222222FE2222222222E20200000000001B
:1033C00000000000000000000000000000FF0000FE
:1033D0000912007F00091240807F000000000000F9
:1033E000000000000000000000000000409C010000
:1033F000EE660200A0500300D0430400423B0500EB
:103400001635060066300700A62C08009A29090028
:1034100006270A00E0240B00F6220C0052210D00C2
:10342000E01F0E00961E0F006A1D10005C1C1100AC
:10343000621B1200861A1300B4191400F618150046
:1034400042181600A21717000C171800761619005C
:10345000F4151A0072151B00FA141C008C141D00C0
:1034600028141E00BA131F00601320000613210049
:10347000AC1222005C1223000C122400BC112500A7
:103480007611260030112700EA102800AE1029001E
:1034900072102A0036102B00FA0F2C00C80F2D00D6
:1034A0008C0F2E005A0F2F00280F3000000F310014
:1034B000CE0E32009C0E3300740E34004C0E3500DC
:1034C000240E3600FC0D3700D40D3800AC0D390049
:1034D000840D3A00660D3B003E0D3C00200D3D0082
:1034E000020D3E00E40C3F00C60C40009E0C410063
:1034F0008A0C42006C0C43004E0C4400300C45001A
:10350000120C4600FE0B4700E00B4800CC0B4900B4
:10351000AE0B4A009A0B4B007C0B4C00680B4D0025
:10352000540B4E00400B4F00220B50000E0B51006D
:10353000FA0A5200E60A5300D20A5400BE0A5500A5
:10354000AA0A5600960A5700820A5800780A5900BB
:10355000640A5A00500A5B003C0A5C00320A5D00B3
:103560001E0A5E000A0A5F00000A6000EC096100A2
:10357000E2096200CE096300BA096400B00965007F
:103580009C0966009209670088096800740969004F
:103590006A096A0056096B004C096C0042096D000B
:1035A00038096E0024096F001A09700010097100B3
:1035B000FC087200F2087300E8087400DE08750069
:1035C000D4087600CA087700B6087800AC087900FD
:1035D000A2087A0098087B008E087C0084087D0091
:1035E0007A087E0070087F00660880005C08810011
:1035F00052088200480883003E0884003408850091
:103600002A08860020088700160888000C08890010
:1036100002088A00F8078B00EE078D00E4078E0091
:10362000DA078F00D0079000C6079100BC0793000F
:10363000B2079400A80795009E079600940798008B
:103640008A07990080079A0076079B006C079D0007
:1036500062079E005807A0004E07A1004407A20081
:103660003A07A4003007A5002607A7001C07A800FA
:103670001207AA000807AB00FE06AD00F406AF0073
:10368000EA06B000E006B200D606B400CC06B500EB
:10369000C206B700B806B900AE06BB00A406BC005F
:1036A0009A06BE009006C0008606C2007C06C400D2
:1036B0007206C6006806C8005E06CA005406CC0042
:1036C0004A06CE004006D0003606D2002C06D400B2
:1036D0002206D7001806D9000E06DB000406DE001D
:1036E000FA05E000F005E200E605E500DC05E7008C
:1036F000D205EA00C805ED00BE05EF00B405F200F2
:10370000AA05F500A005F8009605FA008C05FD0055
:1037100082050001780503016E05060164050A01B2
:103720005A050D0150051001460513013C0517010E
:1037300032051A0128051E011E0521011405250167
:103740000A05290100052C01F6043001EC043401BE
:10375000E2043801D8043D01CE044101C40445010E
:10376000BA044A01B0044E01A60453019C04580156
:1037700092045C01880461017E04660174046C019A
:103780006A0471016004760156047C014C048201D4
:103790004204870138048D012E04930124049A0108
:1037A0001A04A0011004A7010604AE01FC03B40131
:1037B000F203BC01E803C301DE03CA01D403D20152
:1037C000CA03DA01C003E201B603EB01AC03F30163
:1037D000A203FC01980305028E030E028403180263
:1037E0007A03220270032C02660337025C03420252
:1037F00052034D02480358023E036402340371022F
:103800002A037D0220038A02160398020C03A602F3
:103810000203B402F802C302EE02D302E402E3029E
:10382000DA02F402D0020503C6021703BC02290320
:10383000B2023D03A80251039E02650394027B037A
:103840008A0292038002A9037602C1036C02DB03A1
:1038500070380008000000203C000000D01B000869
:10386000AC3800083C00002024050000E01B0008E4
:103870000100000000A24A04000000000000000057
:1038800001020304060708090000000002040608FC
:1038900000000000010203040102030406070809F6
:0C38A0000000000000000000000000001C
:0400000508000145A9
:00000001FF
